:020000040800F2
:100000001024002001010008992000089B2000080E
:100010009F200008A3200008A7200008000000007F
:10002000000000000000000000000000AB200008FD
:10003000AD20000800000000AF200008B12000083B
:100040001B0100081B0100081B0100082B210008F0
:100050001B0100081B0100081B0100081B01000810
:100060001B0100081B0100081B0100081B01000800
:100070001B0100081B0100081B0100081B010008F0
:100080001B0100081B0100081B0100081B010008E0
:100090001B0100081B0100081B0100081B010008D0
:1000A0001B0100081B0100081B0100081B010008C0
:1000B000E9230008132F00081B0100081B0100089A
:1000C0001B0100081B0100081B0100081B010008A0
:1000D0001B010008BB200008892F0008F32000083E
:1000E0001B0100081B0100081B010008DFF80CD0F1
:1000F00005F04AFA00480047B11F0008102400200C
:100100000648804706480047FEE7FEE7FEE7FEE7B1
:10011000FEE7FEE7FEE7FEE7FEE7FEE70302000874
:10012000ED0000080CB50020019000906C480068BC
:1001300040F480306A49086000BF6948006800F4F4
:10014000003000900198401C0190009818B9019867
:10015000B0F5A06FF1D16248006800F4003010B132
:100160000120009001E0002000900098012843D178
:100170005C48006840F010005A4908600846006872
:1001800020F0030008600846006840F002000860A4
:1001900053484068524948600846406848600846ED
:1001A000406840F4806048600846406820F47C1055
:1001B00048600846406840F4E81048600846006817
:1001C00040F08070086000BF4548006800F0007093
:1001D0000028F9D04248406820F0030040494860B8
:1001E0000846406840F00200486000BF3C48406854
:1001F00000F00C000828F9D10CBD10B5FFF792FFF4
:1002000010BD10B53648006840F001003449086060
:10021000084640683449084031494860084600684B
:10022000324908402E4908600846006820F48020C2
:1002300008600846406820F4FE0048604FF41F0044
:100240008860FFF7DAFF4FF000602949086010BDB1
:1002500010B5002100200022214B5B6803F00C0147
:1002600021B1042906D0082928D107E0214B224CCE
:10027000236027E01F4B204C236023E0184B5B6872
:1002800003F47010164B5B6803F48032022303EB17
:10029000904022B9194B4343174C23600DE0104B9B
:1002A0005B6803F4003323B1144B4343124C2360C7
:1002B00003E0104B4343104C236003E00D4B0E4C06
:1002C000236000BF00BF064B5B68C3F303130C4CF5
:1002D000E15C094B1B68CB40074C236010BD00005C
:1002E00000100240002002400000FFF8FFFFF6FE71
:1002F00008ED00E000127A000000002000093D0037
:100300000400002031490143314A1160704770B543
:10031000002100230F22C47804B32D4C246804F478
:10032000E064C4F5E064210AC1F10403CA404478E2
:1003300004FA03F18478144021430901254C06781E
:10034000A155047804F01F050124AC4005786D1117
:10035000AD0005F1E025C5F8004109E0047804F09E
:100360001F050124AC401C4D0678761145F8264047
:1003700070BD1A4A0A400243154B1B1F1A60704792
:1003800039B1134A121D12680243114B1B1D1A602A
:1003900006E00F4A121D126882430D4B1B1D1A60A6
:1003A0007047042808D14FF0E021096941F00401A9
:1003B0004FF0E022116107E04FF0E021096921F0E0
:1003C00004014FF0E0221161704700000000FA05BF
:1003D0000CED00E000E400E080E100E080FFFF1FA2
:1003E00010B50446CC48844208D10121042000F015
:1003F0004DFB0021042000F049FB46E0C748844241
:1004000008D10121082000F041FB0021082000F064
:100410003DFB3AE0C248844208D10121102000F09F
:1004200035FB0021102000F031FB2EE0BD48844256
:1004300008D10121202000F029FB0021202000F01C
:1004400025FB22E0B848844208D10121402000F079
:100450001DFB0021402000F019FB16E0B348844248
:1004600008D10121802000F011FB0021802000F044
:100470000DFB0AE0AE48844207D10121801500F04F
:1004800005FB0021A01500F001FB10BD10B50121F6
:10049000084600F0FBFA0021012000F0F7FA10BD39
:1004A0002DE9F0410246002500260020002300240B
:1004B000002791F803C00CF00F0591F803C00CF071
:1004C000100CBCF1000F03D091F802C04CEA0505F6
:1004D00091F800C0BCF1000F31D0146800202BE06F
:1004E0004FF0010C0CFA00F3B1F800C00CEA03065F
:1004F0009E4220D183004FF00F0C0CFA03F7BC434F
:1005000005FA03FC4CEA040491F803C0BCF1280F7F
:1005100006D14FF0010C0CFA00FCC2F814C00AE03E
:1005200091F803C0BCF1480F05D14FF0010C0CFA53
:1005300000FCC2F810C0401C0828D1D31460B1F8E8
:1005400000C0BCF1FF0F34DD546800202EE000F144
:10055000080C4FF0010808FA0CF3B1F800C00CEADF
:1005600003069E4221D183004FF00F0C0CFA03F7D3
:10057000BC4305FA03FC4CEA040491F803C0BCF147
:10058000280F05D100F1080C08FA0CF8C2F8148005
:1005900091F803C0BCF1480F07D100F1080C4FF0EF
:1005A000010808FA0CF8C2F81080401C0828CED3C5
:1005B0005460BDE8F0814FF6FF7101800221817027
:1005C0000421C17070470246002093680B400BB1B4
:1005D000012000E0002070470146886880B2704723
:1005E00002460020D3680B400BB1012000E0002040
:1005F00070470146C86880B2704701617047416129
:1006000070470AB1016100E041617047C160704705
:100610004FF480320A43826181618261826982691A
:10062000704702460020434B18684FF6807318400D
:1006300040EA021008433F4B186070473E49C861CA
:100640007047F0B50A46002300240021002500F081
:100650000046B6F1004F02D1364EF16901E0354E49
:100660007168C0F3034583B200F44016B6F5401F2D
:1006700008D121F070612F4E766826F070662D4FFC
:100680007E6012E000F48016B6F5801F06D10326C6
:1006900006FA05F4A14341F0706106E0460D36010B
:1006A00003FA06F6B14341F0706122B1460D3601FE
:1006B00003FA06F6314300F00046B6F1004F02D1CE
:1006C0001C4EF16101E01B4E7160F0BD30B500229F
:1006D0008B071C0F0F2303FA04F2164B08338C1000
:1006E00053F824309343134C08348D1044F82530CC
:1006F00023468C1053F824308C07240F00FA04F49E
:1007000023430C4C08348D1044F8253030BD0A4981
:10071000DC3108607047000000080140000C014017
:10072000001001400014014000180140001C01406D
:100730000020014000000140000020420E490860F6
:1007400070470D49486070470B49886070474AF60A
:10075000AA200949086070474CF6CC400649086059
:10076000704701460020044AD2680A400AB10120BD
:1007700000E000207047000000300040DF480068C3
:1007800040F00100DD49086008464068DC49084047
:10079000DA49486008460068DA490840D7490860E5
:1007A0000846006820F4802008600846406820F46D
:1007B000FE0048604FF41F0088607047CF49096809
:1007C00021F48031CD4A11601146096821F480215D
:1007D0001160B0F5803F03D0B0F5802F0ED106E058
:1007E000C649096841F48031C44A116007E0C34931
:1007F000096841F4A021C14A116000E000BF00BFB8
:10080000704710B501460022002300204A11012A3A
:1008100002D1BA4C236806E0022A02D1B74C236AFF
:1008200001E0B64C636A01F01F02012494401C40B1
:100830000CB1012000E0002010BD38B50020009070
:100840000024002500BF3120FFF7DBFF054600989C
:10085000401C00900098B0F5A06F01D0002DF2D0A0
:100860003120FFF7CEFF08B1012400E0002420462C
:1008700038BD01460020A14A106820F0F80040EA87
:10088000C10010607047A049086070470246002010
:100890009A4B586820F47C1042EA01031843974BA6
:1008A0005860704798490866704701460020934A8F
:1008B000506820F003000843506070478F4840683C
:1008C00000F00C007047014600208C4A506820F070
:1008D000F00008435060704701460020874A506886
:1008E00020F4E06008435060704701460020834ACE
:1008F000506820F4605040EAC1005060704729B150
:100900007E4A527A02437D4B5A7204E07B4A527A05
:1009100082437A4B5A7270477B49D83108607047DE
:1009200001460020754A506820F44040084350605A
:1009300070470021714A20321170704A82F82010ED
:10094000012802D004280AD104E001216B4A203298
:10095000117005E00521694A2032117000E000BFE6
:1009600000BF70476949086070476449096A0143DC
:10097000624A11627047654944390860704730B572
:1009800000210022002400235C4D6D6805F00C015D
:1009900021B1042905D0082923D105E05C4D05606B
:1009A00022E05B4D05601FE0544D6D6805F4701248
:1009B000524D6D6805F48034022505EB92421CB956
:1009C000544D554305600BE04C4D6D6805F4003502
:1009D0001DB1504D5543056002E04D4D5543056036
:1009E00002E04B4D056000BF00BF444D6D6805F04F
:1009F000F0010909484D6B5C0568DD4045603F4DDD
:100A00006D6805F4E061090A434D6B5C4568DD40A3
:100A100085603A4D6D6805F46051C90A3E4D6B5CC6
:100A20004568DD40C560354D6D6805F44041890B72
:100A30003A4D6B5CC568B5FBF3F5056130BD29B176
:100A40002E4A526902432D4B5A6104E02B4A5269E7
:100A500082432A4B5A61704729B1284A926902435E
:100A6000264B9A6104E0254A92698243234B9A619E
:100A7000704729B1214AD2690243204BDA6104E070
:100A80001E4AD26982431D4BDA61704729B11B4A65
:100A9000D2680243194BDA6004E0184AD2688243F4
:100AA000164BDA60704729B1144A12690243134B9E
:100AB0001A6104E0114A12698243104B1A617047AF
:100AC00012494039086070470F49C86470470B49A4
:100AD000C87170470948406A40F080700749486211
:100AE000704701460020054A92680A400AB1012079
:100AF00000E00020704701498872704700100240F2
:100B00000000FFF8FFFFF6FE000042428004424270
:100B100000127A0000093D0014000020240000208B
:100B200029B1504A128802434E4B1A8004E04D4AC4
:100B3000128882434B4B1A8070474A48001D008838
:100B400040F010004749091D088070474548001DC6
:100B500000884FF6EF7108404249091D0880704730
:100B6000002140481C300188001F008841EA0040F5
:100B7000704700B50246FFF7E0FF100C3949183105
:100B80000880091D0A80FFF7E1FF00BD00B502469D
:100B9000FFF7D3FFC2F30340324908310880091D33
:100BA0000A80FFF7D3FF00BD00B50246FFF7C5FF7F
:100BB000100C2C4920310880091D0A80FFF7C6FF60
:100BC00000BD00202749103109880907080B254975
:100BD000143109880843704700BF2248001D00886F
:100BE00000F020000028F8D070471E48001D008843
:100BF0004FF6F77108401B49091D088000BF1948CE
:100C0000001D008800F008000028F8D07047014659
:100C10000020144A121D12880A400AB1012000E087
:100C2000002070470F49091D098881430D4A121D94
:100C300011807047014600200A4A121D12880A409E
:100C4000D0B2084A12880A4012B108B1012000E06F
:100C5000002070470349091D09888143014A121D7C
:100C6000118070470028004010B50446FE488442B9
:100C700008D10121C014FFF709FF0021E014FFF79C
:100C800005FFC4E0B4F1804F08D101210846FFF709
:100C90000AFF00210120FFF706FFB8E0F348844275
:100CA00008D101210220FFF7FEFE00210220FFF7FC
:100CB000FAFEACE0EE48844208D101210420FFF79F
:100CC000F2FE00210420FFF7EEFEA0E0E948844296
:100CD00008D101210820FFF7E6FE00210820FFF7D8
:100CE000E2FE94E0E448844208D101211020FFF79D
:100CF000DAFE00211020FFF7D6FE88E0DF488442AC
:100D000008D101212020FFF7CEFE00212020FFF78F
:100D1000CAFE7CE0DA48844208D101214014FFF782
:100D2000B5FE00216014FFF7B1FE70E0D5488442A3
:100D300009D10121C804FFF7A9FE00214FF40020CA
:100D4000FFF7A4FE63E0D048844209D101210805E1
:100D5000FFF79CFE00214FF48010FFF797FE56E04E
:100D6000CA48844209D101214805FFF78FFE0021BE
:100D70004FF40010FFF78AFE49E0C548844208D1CD
:100D800001214020FFF78FFE00214020FFF78BFE5E
:100D90003DE0C048844208D101218020FFF783FE56
:100DA00000218020FFF77FFE31E0BB48844208D15C
:100DB00001218015FFF777FE0021A015FFF773FED4
:100DC00025E0B648844209D101210804FFF75EFE00
:100DD00000214FF48030FFF759FE18E0B0488442FC
:100DE00009D101214804FFF751FE00214FF40030E2
:100DF000FFF74CFE0BE0AB48844208D10121880488
:100E0000FFF744FE00214FF48020FFF73FFE10BDA6
:100E100000220288944B98420ED0994B98420BD0F6
:100E2000B0F1804F08D0914B984205D0904B98423A
:100E300002D0904B984204D14FF68F731A404B88E2
:100E40001A438D4B984207D08C4B984204D04FF6F2
:100E5000FF431A40CB881A4302808B8883850B8816
:100E60000385814B98420BD0854B984208D08B4B21
:100E7000984205D08A4B984202D08A4B984201D1C1
:100E80000B7A038601238382704770B50024002209
:100E90000023058C4FF6FE7635400584028C83884E
:100EA000048B4FF68F752C40B51E2C400D882C43BB
:100EB000751E2A400D892A434D882A436A4DA8424F
:100EC0000BD06F4DA84208D0744DA84205D0744D88
:100ED000A84202D0734DA84213D14FF6F7752A40AD
:100EE0004D892A434FF6FB752A408D882A434FF6D9
:100EF000FF652B404FF6FF552B408D892B43CD8945
:100F00002B4383800483CD888586028470BD70B5B1
:100F1000002400220023058C4FF6EF76354005842F
:100F2000028C8388048B48F6FF752C404FF6FF45F2
:100F30002C400D884FF6FF7606EA05252C434FF628
:100F4000DF752A400D8906EA05152A434D8806EA11
:100F500005152A43444DA84202D0494DA8421DD14F
:100F60004FF67F752A404D894FF6FF7606EA051544
:100F70002A434FF6BF752A408D8806EA05152A4395
:100F80004FF6FF352B404FF2FF752B408D8906EA57
:100F900085052B43CD8906EA85052B438380048391
:100FA000CD880587028470BD70B50024002200231F
:100FB000058C4FF6FF6635400584028C8388848B50
:100FC0004FF68F752C404FF6FC752C400D882C4346
:100FD0004FF6FF552A400D894FF6FF7606EA0525A4
:100FE0002A434D8806EA05252A431F4DA84202D010
:100FF000234DA8421DD14FF2FF752A404D894FF66F
:10100000FF7606EA05252A434FF6FF352A408D88EC
:1010100006EA05252A434EF6FF752B404DF6FF756F
:101020002B408D8906EA05152B43CD8906EA051567
:101030002B4383808483CD888587028470BD70B5FF
:10104000002200230024058C4EF6FF7635400584EF
:10105000038C8488828B48F6FF752A404FF6FF4543
:101060002A400D8820E00000002C014000040040D0
:1010700000080040000C0040001000400014004038
:1010800000340140004C0140005001400054014038
:1010900000180040001C00400020004000400140BB
:1010A00000440140004801404FF6FF7606EA05255E
:1010B0002A434DF6FF752B400D8906EA05352B4373
:1010C0004D8806EA05352B43FA4DA84202D0FA4D69
:1010D000A84208D14BF6FF752C408D894FF6FF765C
:1010E00006EA85152C4384808283CD88A0F8405081
:1010F000038470BD828B4FF2FF331A408283828B50
:101100004FF6FF7303EA01231A4382837047F0B559
:101110000C461546002200210026078C4EF6FF7C67
:1011200007EA0C070784828B018C4FF6FF7707EAEA
:10113000043640F6FF473A404FF6FF7707EA0527A7
:101140003A434FF6FF7707EA03373A43D94FB8429D
:101150000ED0D94FB8420BD0B0F1804F08D0D74F46
:10116000B84205D0D64FB84202D0D64FB84206D1C9
:101170004DF6FF77394046F48057394305E047F68E
:10118000FF57394044F48057394382830184F0BDCE
:10119000828B4FF6F3731A408283828B0A438283D9
:1011A0007047F0B50C461546002200210026078C3A
:1011B0004FF6FF6C07EA0C070784828B018C4FF611
:1011C000FF7707EA04264FF60C773A404FF6FF7791
:1011D00007EA03172F433A43B64FB8420ED0B64F33
:1011E000B8420BD0B0F1804F08D0B44FB84205D010
:1011F000B34FB84202D0B34FB84206D14FF6FF57B3
:10120000394046F48077394305E04FF2FF573940C3
:1012100044F48077394382830184F0BD028B4FF21E
:10122000FF331A400283028B4FF6FF7303EA012358
:101230001A4302837047F0B50C4615460022002180
:101240000026078C4FF6EF7C07EA0C070784028B19
:10125000018C4FF6FF7707EA041640F6FF473A4045
:101260004FF6FF7707EA03373A434FF6FF7707EA6F
:1012700005273A438F4FB8420ED08F4FB8420BD05C
:10128000B0F1804F08D08D4FB84205D08C4FB84296
:1012900002D08C4FB84206D14FF6DF77394046F086
:1012A0001007394305E04FF65F77394044F01007E7
:1012B000394302830184F0BD028B4FF6F3731A4069
:1012C0000283028B0A4302837047F0B50C46154631
:1012D00000220021068C4FF6FE773E400684028BEA
:1012E000018C4FF60C7632407E1C06EA03162E4324
:1012F0003243704EB0420ED06F4EB0420BD0B0F1C0
:10130000804F08D06D4EB04205D06D4EB04202D035
:101310006C4EB04206D14FF6FD76314044F00106E6
:10132000314305E04FF6F576314044F00106314394
:1013300002830184F0BD70B505460C465D488542C8
:101340000ED05D4885420BD0B5F1804F08D05B4888
:10135000854205D05A48854202D05A48854200D17C
:1013600000E000BF208850B92389A2886188284600
:10137000FFF7ABFFE1882846FFF79EFF25E02088B6
:1013800004280AD12389A28861882846FFF753FFE1
:10139000E1882846FFF742FF17E0208808280AD195
:1013A0002389A28861882846FFF7FBFEE18828464A
:1013B000FFF7EEFE09E02389A28861882846FFF73F
:1013C000A6FEE1882846FFF795FE70BD2DE9F041A5
:1013D00005460C4600260127608808B9022600E071
:1013E0000026A088012801D1022700E001272088DB
:1013F000A0B92389A28861882846FFF766FFE188A3
:101400002846FFF759FF23893A4631462846FFF719
:1014100012FFE1882846FFF701FF13E02389A28825
:1014200061882846FFF707FFE1882846FFF7F6FEA8
:1014300023893A4631462846FFF747FFE188284688
:10144000FFF73AFFBDE8F0810A884B881A438B8882
:101450001A43CB881A430B891A434B891A438B8949
:101460001A43A0F8442070474FF6FF718180002195
:101470000180C1804180017270470021018041805C
:101480008180C180018141818181C18170470021BA
:1014900001804180012181800021C180018170474C
:1014A0000021018041808180C18001814181818151
:1014B00070470000002C014000340140000400404F
:1014C00000080040000C004021B1028842F00102F7
:1014D000028004E002884FF6FE731A4002807047D3
:1014E00031B1B0F8442042F40042A0F8442005E0B5
:1014F000B0F84420C2F30E02A0F8442070471AB19D
:1015000083890B43838102E083898B438381704706
:101510008182704741EA0203A0F8483070471AB14F
:1015200083890B43838102E083898B4383817047E6
:1015300001894FF6F8721140018170470A46002177
:1015400001894FF68F73194011430181704730B5FF
:1015500004460D4629462046FFF7F0FF208940F05B
:101560000700208130BD2DE9F04104460D461646A6
:101570001F46602D06D13B46012231462046FFF72B
:101580005AFE05E03B46012231462046FFF79DFE0C
:1015900029462046FFF7D2FF208940F0070020812E
:1015A000BDE8F08130B50C4600210189C9B24FF683
:1015B000FF7505EA0325154325432943018130BD05
:1015C0002DE9F04105460E4617469846002443464D
:1015D0003A4631462846FFF7E5FF2C894FF6F8706A
:1015E000044044F007044FF68F70044044F0700448
:1015F0002C81BDE8F081F0B504460D4616461F4625
:101600003B46324629462046FFF7CCFF208940F46E
:1016100080402081F0BD0185828270470A4600210A
:1016200001884FF68F731940114301807047F0B560
:101630000C4615461E460021002200230189028B1C
:10164000038C4FF6F877394021434FF6FC473A4078
:1016500040F201173A434FF6DD773B404FF6FF77F4
:1016600007EA06172F433B43018102830384F0BD41
:101670000A460021018B4FF68F73194011430183F5
:1016800070470A460021018B48F6FF7319404FF658
:10169000FF7303EA02231943018370470A460021BE
:1016A000818B4FF68F7319401143818370470A462F
:1016B0000021818B48F6FF7319404FF6FF7303EA50
:1016C000022319438183704721B1028842F08002CE
:1016D000028004E002884FF67F731A400280704750
:1016E00021B1828842F00402828004E082884FF6B1
:1016F000FB731A408280704721B1828842F0080251
:10170000828004E082884FF6F7731A408280704727
:1017100021B1828842F00102828004E082884FF683
:10172000FE731A40828070470A460021018B4FF6F3
:10173000F77319401143018370470A460021018B5A
:101740004FF2FF7319404FF6FF7303EA0223194368
:10175000018370470A460021818B4FF6F7731940C9
:101760001143818370470A460021818B4FF2FF733A
:1017700019404FF6FF7303EA022319438183704730
:101780000A460021018B4FF6FB7319401143018378
:1017900070470A460021018B4FF6FF3319404FF680
:1017A000FF7303EA02231943018370470A460021AD
:1017B000818B4FF6FB7319401143818370470A46B2
:1017C0000021818B4FF6FF3319404FF6FF7303EA78
:1017D00002231943818370470A460021018B4FF68B
:1017E0007F7319401143018370470A460021018B22
:1017F000C1F30E014FF6FF7303EA0223194301837D
:1018000070470A460021818B4FF67F7319401143C0
:10181000818370470A460021818BC1F30E014FF688
:10182000FF7303EA02231943818370470A460021AC
:10183000018C4FF6FD7319401143018470470A462D
:101840000021018C4FF6F773194011430184704752
:101850000A460021018C4FF6DF7319404FF6FF73E3
:1018600003EA02131943018470470A460021018CE0
:101870004FF67F7319404FF6FF7303EA02131943C3
:10188000018470470A460021018C4FF6FF5319402E
:101890004FF6FF7303EA02231943018470470A4697
:1018A0000021018C4FF2FF7319404FF6FF7303EADA
:1018B00002231943018470470A460021018C4DF62A
:1018C000FF7319404FF6FF7303EA02331943018493
:1018D000704730B5002301248C40A3B2048C9C4394
:1018E0000484048C02FA01F5ADB22C43048430BDAB
:1018F00030B5002304248C40A3B2048C9C430484A0
:10190000048C02FA01F5ADB22C43048430BD70B5ED
:101910000346002000241846183001258D40ACB243
:101920001D8CA5431D8409B1082909D100EB610074
:10193000056825F0700505600568154305600EE033
:101940000D1FC5F34E052844056825F4E0450560E4
:1019500005684FF6FF7606EA02263543056070BD3E
:1019600021B1028842F00202028004E002884FF6B0
:10197000FD731A400280704721B1028842F00402D0
:10198000028004E002884FF6FB731A400280704721
:1019900021B1828842F08002828004E082884FF682
:1019A0007F731A408280704702884FF6F7731A409F
:1019B000028002880A430280704782884FF68F7344
:1019C0001A40828082880A438280704702894FF6DB
:1019D000F8731A40028102890A4302817047028922
:1019E0004FF67F731A40028102890A4302817047D1
:1019F0008184704781857047818670470187704771
:101A000081877047A0F84010704702884FF6FF4367
:101A10001A40028002880A43028070470146888E7D
:101A200070470146088F70470146888F704701460E
:101A3000B1F8400070470146888C70470146088D18
:101A4000704702460020138A0B400BB1012000E0D2
:101A500000207047CA430282704730B5024600201A
:101A600000230024158A05EA0103958905EA01048B
:101A700013B10CB1012000E0002030BDCA43028246
:101A80007047000010B50446FB48844209D101218B
:101A90008803FEF7FBFF00214FF48040FEF7F6FFBE
:101AA00032E0F648844209D101214804FEF7FBFFE9
:101AB00000214FF40030FEF7F6FF25E0F0488442A5
:101AC00009D101218804FEF7EEFF00214FF48020A8
:101AD000FEF7E9FF18E0EB48844209D10121C80470
:101AE000FEF7E1FF00214FF40020FEF7DCFF0BE0E2
:101AF000E548844208D101210805FEF7D4FF002102
:101B00004FF48010FEF7CFFF10BD2DE9F04786B0EF
:101B100005460E460024A24600BFA1460027B08914
:101B200000B100BF2F462C8A4CF6FF700440F088AD
:101B300004432C82AC894EF6F3100440B0883189FE
:101B40000843718908430443AC81AC8A4FF6FF40D7
:101B50000440B0890443AC8201A8FEF710FFC648D8
:101B6000874202D1DDF810A001E0DDF80CA0A889C1
:101B700000F4004040B10AEBCA0000EB0A103168E3
:101B80004900B0FBF1F807E00AEBCA0000EB0A10CD
:101B900031688900B0FBF1F86420B8FBF0F0040173
:101BA0002009642101FB1089A88900F4004040B19C
:101BB000322000EBC900B0FBF1F000F00700044355
:101BC00008E0322000EB09106421B0FBF1F000F0D6
:101BD0000F0004432C8106B0BDE8F0874FF4165186
:101BE000016000218180C18001810C21418100219F
:101BF0008181704710B502460020108A4FF2FF0322
:101C000018400B884C8823438C882343CC8823437B
:101C10001843108210BD0021018041808180C18065
:101C2000704721B1828942F40052828104E08289A6
:101C30004DF6FF731A4082817047F0B503460024C9
:101C400000260025002040F66A17B94200D100BFE7
:101C50001846C1F3421401F01F06012707FA06F5E2
:101C6000012C01D10C3004E0022C01D1103000E035
:101C700014301AB107682F43076002E00768AF43CA
:101C80000760F0BD1AB1838A0B43838202E0838A26
:101C90008B4383827047028A4FF6F0731A400282A8
:101CA000028A0A430282704782894FF2FF731A4008
:101CB000828182890A438281704721B1828942F000
:101CC0000202828104E082894FF6FD731A4082810C
:101CD0007047028A4FF6DF731A400282028A0A4373
:101CE0000282704721B1028A42F48042028204E0FB
:101CF000028A4BF6FF731A4002827047C1F3080252
:101D00008280704701468888C0F308007047818947
:101D100041F0010181817047028BD2B20283028BB4
:101D200042EA012202837047028B02F47F4202835F
:101D3000028B0A430283704721B1828A42F020025B
:101D4000828204E0828A4FF6DF731A4082827047F3
:101D500021B1828A42F01002828204E0828A4FF628
:101D6000EF731A408282704721B1828A42F00802E2
:101D7000828204E0828A4FF6F7731A4082827047AB
:101D800021B1828942F40042828103E08289C2F358
:101D90000E028281704721B1828A42F400628282FF
:101DA00004E0828A4FF2FF731A4082827047828A6F
:101DB0004FF6FB731A408282828A0A4382827047FE
:101DC00021B1828A42F00202828204E0828A4FF6C6
:101DD000FD731A408282704702460020B1F5007FF1
:101DE00000D100BF13880B400BB1012000E00020A0
:101DF000704701F40072B2F5007F00D100BFCA4302
:101E00000280704770B502460024002300250020A0
:101E100040F66A16B14200D100BFC1F3421501F08D
:101E20001F03012606FA03F3012D02D196893340E0
:101E300006E0022D02D1168A334001E0968A334033
:101E40000C12012606FA04F41688344013B10CB1C2
:101E5000012000E0002070BD10B50022002340F6F4
:101E60006A14A14200D100BF0A1201249440A3B217
:101E7000DC43048010BD00000038014000440040F5
:101E800000480040004C00400050004010B5482081
:101E900000F058F900F0E4FE00F070FC00F0EAFBFE
:101EA00000F0D7FB00F0EFFD00F0FCFE022000F098
:101EB00019FF2121484803F012FA002000F0A3FB8B
:101EC00010BD10B5002400F000FF4349887401F0F4
:101ED000BCFA42490968401AB0F5FA6F0DD93E497B
:101EE0001731081F00F033FD044614B13CA003F085
:101EF0007DFB01F0AAFA3949086010BD10B53EA07B
:101F000003F074FB032002F028FE10BD10B542A0C0
:101F100003F06CFB002002F020FE10BD10B546A0BF
:101F200003F064FB00221146FA2000F047FC012078
:101F300002F013FE10BD10B546A003F057FB0022BF
:101F4000FA21104600F03AFC022002F006FE10BD15
:101F500000B589B0AFF24B00AFF25F014FF4806380
:101F6000444ACDE90010082103A800F079FA1522AF
:101F700003A9414803F09AF9AFF24500AFF26301BB
:101F80004FF480733D4ACDE90010042103A800F00E
:101F900067FA152203A93848153003F087F9364847
:101FA0003749C1F80100084600F083FA09B000BDC6
:101FB000FEF727F9FFF76AFFFFF7CAFF02F0B9FD46
:101FC00030A003F013FB06E000F0A2FEFFF779FF5C
:101FD000014802F088FFF7E7580000203000002099
:101FE0004661696C656420746F2072656164204489
:101FF000485431310D0A00004B45593120505245AB
:102000005353202C50726F64756374696F6E204D4A
:102010006F64650A000000004B455931205052455D
:102020005353204C4F4E47202C5769666920526508
:102030007365740A000000004B4559322050524528
:102040005353202C536F6674204150206D6F64658C
:102050000A0000004B455932205052455353204C42
:102060004F4E47202C4169724C696E6B206D6F6436
:10207000650A0000000C01407900002000080140C2
:10208000280000204D435520496E69742053756324
:1020900063657373200A0000704700BFFEE700BF4E
:1020A000FEE700BFFEE700BFFEE7704770477047DE
:1020B00000204FF0E0218861704710B540F22551B3
:1020C0001E48FFF79FFE98B140F225511B48FFF7CD
:1020D000C3FE1A48FFF716FE044621461748FFF7CD
:1020E0000DFE00BF80211548FFF776FE0028F9D0CD
:1020F00010BD10B540F225511148FFF783FE98B18D
:1021000040F225510E48FFF7A7FE0D48FFF7FAFDF4
:10211000044621460A48FFF7F1FD00BF8021084828
:10212000FFF75AFE0028F9D010BD10B50120FEF7C8
:1021300081FD10B10120FEF78DFD10BD003801407A
:102140000048004010B504466FF00400FEF729F97E
:10215000E11704EB5171C1F3C701234A1170104616
:10216000007800EB4001C1EBC0104FF6FF7101EAAF
:10217000C0001E49088010BD01461B4A12784A4320
:102180004FF0E0235A6100229A6101221A6100BFD8
:102190004FF0E022106900F001021AB100F4803221
:1021A000002AF5D000224FF0E0231A619A617047AF
:1021B00001460E4A12884A434FF0E0235A6100223A
:1021C0009A6101221A6100BF4FF0E022106900F00D
:1021D00001021AB100F48032002AF5D000224FF03B
:1021E000E0231A619A617047340000203600002015
:1021F00070B505460024002600BF22E0D5F8012076
:10220000C4EBC40303EB43031A44B2F8092091B2B0
:10221000D5F80120C4EBC40303EB43031A44D2F8FE
:102220000500FEF7D0F950B9D5F80100C4EBC401A0
:1022300001EB4101415C01208840304386B2601CC3
:10224000C4B2BC480078A042D8DC304670BD70B53E
:10225000054600240026B8480078401CB64908709E
:10226000084600781E2804DB002008700120B349CE
:102270000870B2480078012856D10020AF49087094
:102280002846FFF7B5FF0446AD48007830B1012875
:102290000BD0022819D0032845D13CE024B1A9482D
:1022A00004800120A64908703DE0A64800888442C9
:1022B00007D10220A2490870A248008840F4805645
:1022C00002E000209E4908702DE09E48008884426C
:1022D0000AD000209A4908709B49088099480088D4
:1022E00040F40056304670BD96480088844211D1B3
:1022F00095480088401C9449088008460088642856
:1023000008DB0020088003208D49087044F4004653
:102310003046E8E707E08B480088844202D000207E
:102320008749087000BF00BF0020DCE770B5054694
:10233000002400262846FFF78AFF064606B970BD2E
:1023400006F4005028B3002420E0D5F80100C4EBC7
:10235000C40101EB4101415C01208840304098B14B
:10236000D5F80100C4EBC40101EB41010844D0F8E9
:102370000D0048B1D5F80110C4EBC40202EB4202D3
:102380001144D1F80D008047601CC4B22878A042E7
:10239000DBDC06F4004028B3002420E0D5F801007F
:1023A000C4EBC40101EB4101415C01208840304095
:1023B00098B1D5F80100C4EBC40101EB4101084418
:1023C000D0F8110048B1D5F80110C4EBC40202EBFB
:1023D00042021144D1F811008047601CC4B2287831
:1023E000A042DBDC00BFAAE710B501218807FFF798
:1023F00034FB30B101218807FFF740FB4D48FFF760
:1024000095FF10BD7FB541F61F45092401210846FF
:10241000FEF72FFBADF80850ADF804400020ADF8F2
:102420000A00ADF8060001A9A007FEF7F1FC0122A1
:1024300011469007FFF763F81C208DF8000000207C
:102440008DF8010002208DF8020001208DF80300B4
:102450006846FDF75CFF01218807FFF735F87FBD6F
:102460002DE9F04387B007460C4615461E46DDE9C8
:102470000E89CDF80540CDF80950CDF80D603348F0
:102480000078401C40B231490870C0B28DF8040099
:10249000CDF81590CDF811802D480078401C2C49BE
:1024A0000870152201A9384602F000FF07B0BDE808
:1024B000F08338B50446002504B938BD24480078B7
:1024C000207020780C2801DD0C20207000252AE0E7
:1024D00054F8011FC5EBC50202EB42021144D1F8CA
:1024E00001000121FEF7B8FA03208DF80200482010
:1024F0008DF803002068C5EBC50101EB41010844DC
:10250000B0F8090080B2ADF8000054F80119C5EB2D
:10251000C50202EB42021144D1F805006946FDF7FD
:10252000BFFF681CC5B22078A842D1DCFFF76AFF64
:1025300000BFC2E728000020380000203A00002039
:102540003B0000203E0000203C0000204000002016
:102550003900002008B501210920FEF77DFA01218C
:102560000220FEF786FA01213E48FEF76AF80121B3
:102570003D48FEF766F83020ADF8000018208DF8D1
:10258000030003208DF8020069463848FDF788FFF4
:1025900008BD7FB54FF4FA752C466020ADF80000F9
:1025A0000120ADF80200ADF806500020ADF808009B
:1025B00069462F48FEF769FC08212D48FFF7B4F85B
:1025C0000120ADF80200ADF8064069462848FEF744
:1025D0009EFC08212648FFF7B0F801212448FEF7A9
:1025E00073FF7FBD70B504460D46092604FB06F057
:1025F00081B21F48FFF700FA05FB06F081B21C48C4
:10260000FFF7FCF970BD70B5044624B900210846F7
:10261000FFF7E8FF1CE0002C0DDD251E01DB29463D
:1026200000E06942491D01EB81014906080E0021C5
:10263000FFF7D8FF0CE0251E01DB284600E06842CA
:10264000401D00EB80004006010E0020FFF7CAFF8E
:1026500070BD10B5FFF77EFFFFF79BFF0020FFF76F
:10266000D2FF10BD0002300000081A00000C01402B
:102670000004004008B501210420FEF7EDF9032015
:102680008DF8020010208DF8030003208DF8020061
:102690000120ADF8000069465348FDF701FF08BD71
:1026A00008B500210091009102E00099491C0091B9
:1026B00000998142F9D308BD10B54FF480714B48A1
:1026C000FDF79DFF2820FFF7EBFF4FF4807147488F
:1026D000FDF793FF2820FFF7E3FF10BD10B54FF47F
:1026E00000714248FDF78BFF002403E0FFF7E4FF91
:1026F000601CC4B2202CF9DB10BD01460020CA4387
:10270000C2F38110704770B50446002512E004F052
:10271000004028B14FF400713448FDF76EFF04E02B
:102720004FF400713148FDF76AFF6400FFF7C4FF02
:10273000681CC5B2202DEADB70BD2DE9F0410746CB
:102740000D461646002444F040443046FFF7D5FFBE
:1027500044EA00742846FFF7D0FF44EA8064384614
:10276000FFF7CBFF44EA006444EA064444EA052448
:102770003C432046FFF7C7FFBDE8F08108B50121C3
:102780000820FEF769F910208DF803004FF440701F
:10279000ADF8000003208DF8020069461348FDF7EC
:1027A0007FFEFFF79BFF002211461046FFF7C5FF93
:1027B000002211461046FFF7C0FF08BD70B5044661
:1027C0000D46164601210848FDF717FFFFF786FF63
:1027D000324629462046FFF7B0FF324629462046BA
:1027E000FFF7ABFF70BD000000080140000C014086
:1027F00008B50820ADF8000010208DF80300012076
:102800008DF802006946B148FDF74AFE0020B04944
:1028100008601420FFF7CCFC0120AE49C1F88C0100
:102820001E20FFF7A9FC08BD38B500240820ADF82C
:10283000000048208DF8030001208DF80200694651
:10284000A248FDF72DFE04E0601CC4B20120FFF792
:1028500093FC9F488038006808B1642CF4DB642C3A
:1028600001DB012038BD002404E0601CC4B201205B
:10287000FFF782FC96488038006808B9642CF4DBC6
:10288000642C01DB0120EDE70020EBE710B500240C
:1028900004E0601CC4B20120FFF76EFC8C48803855
:1028A000006808B1642CF4DB002404E0601CC4B2AE
:1028B0000120FFF761FC86488038006808B9642C65
:1028C000F4DB1E20FFF758FC81488038006808B10F
:1028D000012010BD0020FCE770B50024002506E0B3
:1028E0006006040EFFF7D2FF0443681CC5B2082D32
:1028F000F6DB204670BD7CB505460E46FFF778FF37
:10290000FFF792FFF8B9002405E0FFF7E5FF0DF8A7
:102910000400601CC4B2052CF7DB9DF800009DF894
:10292000011008449DF8021008449DF80310084463
:102930009DF80410884208D19DF8000030709DF881
:102940000200287001E001207CBD0020FCE72DE999
:10295000FC470746884600200190009000248146ED
:1029600000250026694601A8FFF7C5FF8146B9F199
:10297000010F30D0584800780A2814DA9DF8041066
:1029800055480278801C00F812109DF80010801E37
:102990000278801C00EB420041704F480078401CD8
:1029A0004D4908701AE000204B4908709DF804104A
:1029B00049480278801C00F812109DF80010801E13
:1029C0000278801C00EB4200417043480078401CB4
:1029D0004149087002E00120BDE8FC873E480078CC
:1029E0000A2802DB0A203C4948703B48407810BB6B
:1029F00000240EE03848801C10F81400284485B2EA
:102A00003548801C00EB44004078304486B2601C9E
:102A1000C4B231480078A042ECDC2F48007895FB26
:102A2000F0F085B22C48007896FBF0F086B23D704D
:102A300088F8006025E0284840780A2821D1002441
:102A40000EE02548801C10F81400284485B2224866
:102A5000801C00EB44004078304486B2601CC4B255
:102A60001D484078A042ECDC1B48407895FBF0F014
:102A700085B21948407896FBF0F086B23D7088F830
:102A800000600020A8E708B501210820FDF7E4FF59
:102A900001211248FDF7D5FD0820ADF800001020F7
:102AA0008DF8030003208DF8020069460748FDF702
:102AB000F7FC08210548FDF7A0FDFFF799FE162158
:102AC000054802F00CFCFFF7AFFE08BD000C01400A
:102AD0008C81214200802142A300002000023000AE
:102AE00008B501210420FDF7B7FF01210846FDF7D5
:102AF000B3FF01218803FDF7AFFF4FF40070ADF87D
:102B0000000018208DF8030003208DF802006946AC
:102B10005F48FDF7C5FC4FF48060ADF8000004206D
:102B20008DF8030069465A48FDF7BAFC01211020D0
:102B3000FDF792FF01218804FDF79BFF0121084664
:102B4000FDF78AFF01215348FDF77BFD4FF48060BC
:102B5000ADF8000018208DF8030003208DF8020066
:102B600069464D48FDF79CFC4FF40060ADF800004D
:102B700004208DF8030069464748FDF791FC08BD25
:102B80001FB54FF4E13000900020ADF80400ADF81F
:102B90000600ADF80800ADF80C000C20ADF80A00F6
:102BA00069463E48FEF7B1FF012240F225513B48FD
:102BB000FFF743F801213948FFF733F84021374840
:102BC000FFF717F94FF4E13000900020ADF8040052
:102BD000ADF80600ADF80800ADF80C000C20ADF81B
:102BE0000A0069462E48FEF790FF012240F2255167
:102BF0002B48FFF722F801212948FFF712F840215E
:102C00002748FFF7F6F81FBD08B525208DF800000E
:102C100000208DF801008DF8020001208DF80300DE
:102C20006846FDF774FB27208DF8000000208DF822
:102C3000010001208DF802008DF803006846FDF7C1
:102C400066FB08BD10B5044621461448FFF756F848
:102C500000BF80211148FFF7BFF80028F9D010BD50
:102C600010B5FFF73DFFFFF78BFFFFF7CDFF10BD5E
:102C700070B504460D46E1B20848FFF73FF800BFC3
:102C800080210648FFF7A8F80028F9D0204670BD3B
:102C900000080140100014000010014000380140FD
:102CA0000048004008B501210820FDF7D5FE80202E
:102CB000ADF8000048208DF8030002208DF80200D6
:102CC00069460748FDF7ECFB08BD10B580210448B4
:102CD000FDF779FC08B1002010BD0120FCE70000E1
:102CE000000C014070B50446042540F27120604399
:102CF00086B245F25550FDF721FD2846FDF721FD2E
:102D00003046FDF721FDFDF722FDFDF725FD70BDE5
:102D10004AF6AA20014908607047000000300040D0
:102D20002DE9FF4707460E4692464FF0000834460D
:102D3000B146354607B126B94FF0FF3004B0BDE8C3
:102D4000F0874FF00008CBE0781C10F80800162838
:102D500076D2DFE800F0999A9BBFBF9CA2A3A4BFE4
:102D6000BFBFBFA5AFAB0B23516376882078DC498A
:102D7000087008460178DBA002F038FCD8480078DB
:102D8000012805D100221146FE20FFF717FD04E0BF
:102D9000002211461046FFF711FD9CE06078D049F3
:102DA000487008464178D6A002F020FCCC48407814
:102DB00030B101280BD002280FD0032819D112E01E
:102DC000C74B9A7A99799878FFF7F8FC12E00022BD
:102DD000FE210846FFF7F2FC0CE046220021FE200F
:102DE000FFF7ECFC06E01E221146EE20FFF7E6FCA2
:102DF00000E000BF00BF6EE0D4F80200B849C1F89F
:102E000002000846D0F80210C4A002F0EFFBB44B59
:102E10009A7A99799878FFF7D1FC5CE0D4F80600AB
:102E2000AF49C1F806000846D0F80610C0A002F06D
:102E3000DDFBAB4B9A7A99799878FFF7BFFC4AE0B3
:102E400048E0D4F80A00A649C1F80A000846D0F8BC
:102E50000A10BCA002F0CAFBA14B9A7A9979987823
:102E6000FFF7ACFC37E0D4F80E009D49C1F80E0026
:102E70000846D0F80E10B8A002F0B8FB9849C989EE
:102E800008B2FFF7C0FB26E025E024E023E00022A3
:102E900011461046FFF792FC1DE01CE01BE01AE013
:102EA00099F80010B3A002F0A1FB14E0B4A002F066
:102EB0009DFB10E0D5F80700A9796A792B79CDE957
:102EC0000032CDE90210EB78AA782988B1A002F08F
:102ED0008DFB00E000BF00BF08F1010000F0FF081B
:102EE000387840453FF730AF002027E7012080F3D6
:102EF000138800BF00BFB248006800F4E060B14929
:102F00000843001DAE490860BFF3408F00BF00BFFB
:102F1000FEE710B50121AC48FEF79FFD28B1012165
:102F2000A948FEF7ABFD00F088FA10BD7FB541F669
:102F30001F45092401210220FDF79BFDADF8085033
:102F4000ADF804400020ADF80A00ADF8060001A974
:102F50009D48FDF75DFF012211469B48FEF7CFFA21
:102F60001D208DF8000000208DF8010002208DF852
:102F7000020001208DF803006846FDF7C8F9012121
:102F80009148FEF7A1FA7FBD08B50020009040F2FD
:102F900025518E48FEF736FF68B140F225518B4827
:102FA000FEF75AFF8948FEF7ADFEC0B2009001213E
:102FB000684600F028FA08BD2DE9F04105460E46A6
:102FC000002415B9601EBDE8F08100F03EFA074606
:102FD000324639467EA002F009FB002423E0295D39
:102FE0007A48FEF78BFE00BF80217848FEF7F4FE9A
:102FF0000028F9D0295D7BA002F0F8FA022C11D349
:10300000285DFF280ED155217048FEF777FE00BFDE
:1030100080216E48FEF7E0FE0028F9D0552171A00E
:1030200002F0E4FA641CB442D9D334A002F0DEFA10
:103030003046C8E700B587B001210420FDF70CFD3C
:1030400001214804FDF715FD01210846FDF704FDA7
:103050000420ADF8180018208DF81B0003208DF80F
:103060001A0006A96148FDF71BFA0820ADF8180000
:1030700004208DF81B0006A95C48FDF711FA4FF4F7
:10308000165002900020ADF80C00ADF80E00ADF81F
:103090001000ADF814000C20ADF8120002A94B4846
:1030A000FEF733FD012240F225514848FEF7C5FDE9
:1030B00001214648FEF7B5FD40214448FEF799FE40
:1030C00026208DF8040000208DF8050001208DF8E1
:1030D00006008DF8070001A8FDF719F907B000BD3B
:1030E000580000204576743A204556454E545F4CB2
:1030F00045445F4F4E4F4646202564200A0000009D
:103100004576743A204556454E545F4C45445F43DE
:103110004F4C4F522025640A000000004576743A57
:103120004556454E545F4C45445F522025640A0085
:103130004576743A4556454E545F4C45445F4720AA
:1031400025640A004576743A4556454E545F4C4511
:10315000445F422025640A004576743A4556454E40
:10316000545F4D4F544F525F5350454544202564A2
:103170000A000000525353492025640A0000000051
:103180005452414E53504152454E545F4441544174
:10319000200A0000574946495F4E5450203A205BB0
:1031A00025642D25642D256420253032643A253090
:1031B00032643A253032645D5B25645D200A00008C
:1031C0000CED00E00000FA0500040040004400405F
:1031D0004D435532576946695B2534643A2534645A
:1031E0005D3A2000253032782000000000080140C0
:1031F00010B504461CB9FAA002F0F8F910BDE06859
:103200006060E068A06000BFF8E710B504461CB934
:10321000F3A002F0EBF910BD0020E0606060A06058
:10322000206000BFF7E710B504462CB9ECA002F00F
:10323000DDF94FF0FF3010BD2068FCE710B5044603
:103240002CB9E7A002F0D2F94FF0FF3010BDD4E95D
:103250000101884201D10020F8E7D4E90101884248
:1032600003D2D4E90110401AF0E72046FFF7DBFF54
:10327000D4E90112891A401AE8E770B504462CB95E
:10328000D7A002F0B3F94FF0FF3070BD2046FFF732
:10329000CAFF05462046FFF7D1FF281AF5E72DE9BA
:1032A000F04104460F46164600252CB9CCA002F08A
:1032B0009DF9681EBDE8F0812FB9D0A002F096F903
:1032C0004FF0FF30F6E7D4E90101884214D22046DE
:1032D000FFF7B4FFB04201D9304602E02046FFF7C5
:1032E000ADFF05462A463846616801F0DFFF606899
:1032F000284460602846DDE72046FFF794FFE26837
:103300006168891A401AB0420AD935462A463846B9
:10331000616801F0CBFF6068284460602846C9E717
:103320002046FFF780FFE2686168891A451A2A463D
:103330003846616801F0BAFFE0686060721B791975
:103340002046FFF7ACFF05442846B3E72DE9F041DE
:1033500004460F46154600262CB9AFA002F046F9E8
:10336000701EBDE8F0812FB9B1A002F03FF94FF017
:10337000FF30F6E72046FFF780FFA8420AD8204634
:10338000FFF77BFF80464146AFA002F02FF94FF0D8
:10339000FF30E6E7D4E9010188422AD82046FFF74A
:1033A00042FFD4E90212891A461AB54213D82A46B6
:1033B0003946A06801F07AFFA0682844A060204642
:1033C000FFF731FFE1680844A168884201D1E06855
:1033D000A0602846C5E732463946A06801F066FF7E
:1033E000E068A060AA1BB9192046FFF7AFFF304480
:1033F000B7E72A463946A06801F058FFA06828447C
:10340000A0602846ADE770B504460D46002624B9F5
:1034100093A002F0EBF8701E70BD2A462146994831
:10342000FFF794FF0646AE4205D097A002F0DEF803
:103430004FF0FF30F0E73046EEE79A48D0F87507D6
:10344000401C9849C1F8750770479648D0F8750731
:1034500070472DE9F04104460D460027002604B1CF
:1034600035B9294690A002F0C1F80020BDE8F081EE
:10347000022603E0A05D3844C7B2761C681EB04245
:10348000F8D83846F2E701B581B0694601AA50780C
:10349000087010784870BDF800000CBD01460806A1
:1034A00001F47F4240EA022001F47F0240EA122048
:1034B00040EA116070472DE9F04104460E460025B0
:1034C0000027A8462CB986A002F090F8681EBDE837
:1034D000F08100250AE0675D701B401E14F8008033
:1034E00004F80580701B401E27546D1CB5EB560F69
:1034F000F1D30020EBE710B503460020541AB4FBCB
:10350000F3F010BD10B50346002002FB031010BD00
:103510002DE9F04704460E46154600273146284659
:1035200001F03AFF8146214601F06EFF804601F02E
:10353000AEFF07463846BDE8F0872DE9F047044660
:103540000E4615460027284601F09CFF814621467D
:1035500001F028FF8046314601F0CCFE0746384690
:10356000BDE8F087024612B102F0070028B9082929
:1035700001D8002070470120FCE702F00700C0F1ED
:103580000800884201D30020F4E70120F2E72DE98A
:10359000FC5F05460C46164699460C9F4FF0000A04
:1035A000D346002001908046B9F1000F00D037B912
:1035B00056A002F01BF84FF0FF30BDE8FC9F3A46E2
:1035C0004946684601F072FE012F07D93946684620
:1035D000FFF771FFB0F1FF3F00D1AFE0B4E00000B2
:1035E0004552524F523A20696E70757420726220B3
:1035F0006973204E554C4C0A000000004552524F52
:10360000523A20696E707574206461746120697328
:10361000204E554C4C0A00004552524F523A2072EF
:103620006220697320656D707479200A00000000C3
:103630004552524F523A206461746120697320658B
:103640006D707479200A00004552524F523A206E34
:103650006F206D656D6F7279202564200A0000006F
:103660004552524F523A2067697A507574446174DA
:10367000612062756620697320656D707479200A17
:1036800000000000940C00204552524F523A204650
:1036900061696C656420746F207262577269746529
:1036A000200A0000BC0000204552524F523A2067C9
:1036B000697A50726F746F636F6C53756D202C2034
:1036C00062756620697320656D707479206F722051
:1036D0006C656E206572726F72202564200A00008E
:1036E00067697A427974654F726465724578636878
:1036F000616E6765204572726F72202C20496C6C78
:103700006567616C20506172616D0A0067697A4477
:1037100065636F6D7072657373696F6E56616C75FA
:1037200065204572726F72202C20496C6C65676150
:103730006C20506172616D0A00000000FEA001F073
:1037400055FF4FF0FF3038E731462046FFF70AFFBC
:103750008246BAF1000F0CD11DF8050004F00701F4
:103760000841C6F10802FF211141084040EA08085B
:1037700021E0BAF1010F1ED1681C1DF8000004F011
:103780000701C1F10801711AC1F10802FF211141BD
:1037900000EA010B1DF8050004F007010841019043
:1037A00004F00700C0F108010BFA01F040EA080834
:1037B000019848EA00084046FFE62DE9F05F05461B
:1037C0000E4690461C460A9F4FF0000AD346D1464B
:1037D00034B9E6A001F00AFF4FF0FF30BDE8F09FDA
:1037E00041463046FFF7BEFE8146B9F1000F07D1D2
:1037F000605D06F0070107FA01F1084360551EE01D
:10380000B9F1010F1BD1F8B206F00701C1F10801AF
:1038100040FA01FA06F00700C0F10801FF20084154
:1038200000EA070B681C205C40EA0A00691C60542F
:10383000605D06F007010BFA01F1084360550020B6
:10384000CCE72DE9FE4F80460E4617464FF0000BA1
:103850000020029081468246002534460090B8F14F
:10386000000F01D006B137B9CAA001F0BFFE4FF07A
:10387000FF30BDE8FE8F4046FFF7E0FC00F0FF0A96
:10388000BAF1000F02D14FF0FF30F2E74FF000091C
:1038900060E0012201A94046FFF701FD00F0FF0BA7
:1038A000BBF1000F52D0C7480078FF281FD19DF808
:1038B0000400FF281BD1C448007848B9FF202070BD
:1038C00060700220C14908800120BF49087034E0BF
:1038D000BE480088042830DDBC480088A8422CD0AF
:1038E000FF20207060700220B849088025E0B548AC
:1038F0000078FF2803D19DF8040055281DD0B24858
:103900000078012819D19DF80400B0490988605455
:10391000AE480088401CAD4908800846008804284D
:103920000BDD0094009C6088FFF7ADFD001D85B2A3
:10393000A6480088A84200D10EE09DF80400A149E5
:103940000870A3480078401CA149087009F10100E3
:1039500000F0FF09D1459CDB00BF9C48008804288B
:1039600023DD9A480088A8421FD198480188204644
:10397000FFF76FFD029095480088401E215C029879
:1039800081420FD12A462146304601F08FFC3D800E
:1039900000208D4908708D4908808D49087089493B
:1039A000087066E76FF0010063E7012061E7F8B592
:1039B00005460C4616460DB104B12EB985A001F09E
:1039C00015FE4FF0FF30F8BD287800F0010098B1E7
:1039D00010212278601C81542078401C2070012026
:1039E0006B1C0246002100900846FFF7D0FD08B18D
:1039F000012000E0002030702878C0F3400078B14A
:103A000011212278601C81542078401C20700120F4
:103A10006B1C0222014600900020FFF7B8FD707079
:103A20002878C0F3800068B112212278601C81548C
:103A30002078401C2070AA7800210120FFF762FD49
:103A4000C6F802002878C0F3C00068B113212278BC
:103A5000601C81542078401C2070EA7800210120ED
:103A6000FFF750FDC6F806002878C0F3001068B1D3
:103A700014212278601C81542078401C20702A79FF
:103A800000210120FFF73EFDC6F80A002878C0F3A8
:103A9000401098B115212278601C81542078401C78
:103AA0002070B5F80500FFF7EEFC07463A466FF0C8
:103AB00004010120FFF726FDC6F80E00002082E772
:103AC00070B504460D46002604B12DB94CA001F096
:103AD0008DFD4FF0FF3070BD28782178884203D0EB
:103AE00051A001F083FD012668786178884203D0F7
:103AF00053A001F07BFD0126D5F80200D4F8021096
:103B0000884203D054A001F071FD0126D5F80600CB
:103B1000D4F80610884203D054A001F067FD0126B6
:103B2000D5F80A00D4F80A10884203D054A001F056
:103B30005DFDAFE0AFE0000067697A4465636F6DDB
:103B40007072657373696F6E56616C756520676915
:103B50007A427974654F7264657245786368616E04
:103B60006765204572726F72200A000067697A43A8
:103B70006F6D707265737356616C756520457272F6
:103B80006F72202C20496C6C6567616C20506172EB
:103B9000616D0A0067697A50726F746F636F6C476A
:103BA00065744F6E655061636B6574204572726F0A
:103BB00072202C20496C6C6567616C2050617261C9
:103BC0006D0A00004800002044000020460000204C
:103BD0004900002067697A44617461506F696E74AE
:103BE000324576656E74204572726F72202C2049C2
:103BF0006C6C6567616C20506172616D0A00000039
:103C000067697A436865636B5265706F72742045AB
:103C100072726F72202C20496C6C6567616C205049
:103C20006172616D0A00000076616C75654C4544F7
:103C30005F4F6E4F6666204368616E6765640A0079
:103C400076616C75654C45445F436F6C6F722043C1
:103C500068616E6765640A0076616C75654C454401
:103C60005F52204368616E6765640A0076616C7517
:103C7000654C45445F47204368616E6765640A0090
:103C800076616C75654C45445F42204368616E67A0
:103C900065640A000126D5F80E00D4F80E1088429B
:103CA00003D0DDA001F0A2FC0126A87CA17C884203
:103CB00003D0E0A001F09AFC0126E87EE17E884274
:103CC00003D0E2A001F092FC0126287F217F8842E8
:103CD00003D0E4A001F08AFC0126687F617F88425E
:103CE00003D0E6A001F082FC0126A87FA17F8842D4
:103CF00003D0E8A001F07AFC0126E87FE17F88424A
:103D000003D0EBA001F072FC012695F8200094F896
:103D10002010884203D0EDA001F068FC0126D5F800
:103D20001300D4F81310884210D0FFF78EFBED4932
:103D30000968401A41F27071884207D3EAA001F085
:103D400055FCFFF782FBE74908600126D5F817000C
:103D5000D4F81710884210D0FFF777FBE1490968C3
:103D6000401A41F27071884207D3E6A001F03EFC90
:103D7000FFF76BFBDB49086001263046ABE6F8B580
:103D800005460C4605B12CB9E4A001F02FFC4FF01C
:103D9000FF30F8BD00202070A07128782346012252
:103DA000002100900846FFF708FD687823460222AC
:103DB000012100900020FFF700FDA87CAD1C2346E8
:103DC0000122002100900620FFF7F7FC0121204688
:103DD000FFF771FB0121A01DFFF76DFB697E607A83
:103DE00061F300006072A97E607A61F34100607245
:103DF000E97EA07A61F30000A072297FA07A61F3C6
:103E00004100A072697FA07A61F38200A072A97F4D
:103E1000A07A61F3C300A0722A6800210120FFF795
:103E20006AFB60706A6800210120FFF764FBA070E4
:103E3000AA6800210120FFF75EFBE070D5F8112091
:103E40006FF00C010120FFF756FBE071D5F815204B
:103E500000210120FFF74FFB2072EA68AD1E6FF0D2
:103E600004010120FFF747FB86B23046FFF70BFB4A
:103E7000A08000208DE710B504462CB9B3A001F056
:103E8000B5FB4FF0FF3010BD002020606060FF20C8
:103E9000207060700020F6E770B504460D4634B916
:103EA000AFF6740001F0A2FB4FF0FF3070BD40F29E
:103EB000BE31B14801F013FA2A462146AE48801CB3
:103EC00001F0F4F9AD48A0F8315B012180F87A17D0
:103ED000FFF7BBFAA949C1F8330B0020E6E710B59C
:103EE0000024A64890F87A0700B910BDA4A001F0FC
:103EF0007DFBA248B0F8311B00F27B70FFF75CF845
:103F0000C4B29E48B0F8310BA04202D0A4A001F088
:103F10006DFBFFF79AFA9949C1F8330B00BFE4E74C
:103F200070B50446944DAD1C34B9AFF6FC0001F0F9
:103F30005DFB4FF0FF3070BD2879401C217988422D
:103F400004D140F2BE318C4801F0C9F90020F2E7FB
:103F50003EB50446002524B998A001F047FB681E31
:103F60003EBD20680090606801909DF80400401CF0
:103F7000C0B28DF804000520FFF785FAADF8020005
:103F800009216846FFF765FA8DF80800092168469F
:103F9000FFF712F80546002D03DA294692A001F03A
:103FA00025FB2846DCE710B5744890F87A0701280D
:103FB00029D1724890F8790702281FDCFFF745FAEB
:103FC0006E49D1F8331B401A40F6B83188421AD9ED
:103FD000FFF73BFA0446694890F87937D0F8332B5D
:103FE000214689A001F002FBFFF779FF634890F8B2
:103FF0007907401C614981F8790704E040F2BE313D
:104000005D4801F06CF910BD30B595B0044600254F
:1040100004B90DE112E1000076616C75654D6F74B5
:104020006F725F5370656564204368616E67656495
:104030000A00000076616C7565496E667261726592
:1040400064204368616E6765640A000076616C7580
:1040500065416C6572745F31204368616E676564A9
:104060000A00000076616C7565416C6572745F32A0
:10407000204368616E6765640A00000076616C75B4
:10408000654661756C745F4C4544204368616E679A
:1040900065640A0076616C75654661756C745F4D88
:1040A0006F746F72204368616E6765640A00000078
:1040B00076616C75654661756C745F54656D4875A5
:1040C0006D204368616E6765640A000076616C75F7
:1040D000654661756C745F4952204368616E67651F
:1040E000640A00004C00002076616C756554656DB3
:1040F0007065726174757265204368616E6765648E
:104100000A00000076616C756548756D69646974B4
:1041100079204368616E6765640A000067697A44C4
:10412000617461506F696E7473325265706F72742E
:1041300044617461204572726F72202C20496C6C4E
:104140006567616C20506172616D0A004552524F83
:10415000523A2067697A50726F746F636F6C48656A
:104160006164496E697420686561642069732065C3
:104170006D707479200A000035080020BC00002012
:104180005761726E696E673A2074696D656F7574F8
:104190002C20726573656E642064617461200A006E
:1041A0004552524F523A20726573656E64206461C5
:1041B0007461206572726F720A0000004552524F9E
:1041C000523A2067697A50726F746F636F6C436FF5
:1041D0006D6D6F6E41636B20646174612069732043
:1041E000656D707479200A004552524F523A20751D
:1041F000617274207772697465206572726F7220C3
:104200002564200A000000005761726E696E673AEB
:1042100067697A50726F746F636F6C526573656E05
:1042200064446174612025642025642025640A00AB
:10423000F6A001F0DBF9681E15B030BD6846FFF747
:104240001AFE02208DF8040060798DF80500FBA1AC
:1042500003C9CDE90201FCA103C9CDE90401FDA117
:1042600003C9CDE90801FEA103C9CDE90601202259
:10427000FEA10AA801F01AF80020CDF84A00CDF8F6
:104280004E009DF851008DF851009DF8510040F00E
:1042900002018DF851100020FFF7F5F8ADF8480045
:1042A0004F20FFF7F0F8ADF8020053216846FFF702
:1042B000D0F88DF8520053216846FEF77DFE054682
:1042C000002D04DA2946AFF2E00001F08FF928460C
:1042D000B2E7FEB504460E46002524B9E8A001F079
:1042E00085F9681EFEBD6846FFF7C5FD12208DF8F2
:1042F000040060798DF805000620FFF7C4F8ADF8DA
:1043000002008DF808600A216846FFF7A2F88DF8D0
:1043100009000A216846FEF74FFE0546002D04DA23
:104320002946AFF23C1001F061F92846DAE770B592
:1043300004460026254624B9DCA001F057F9701E7A
:1043400070BDE048A9680160E9684160298A01817F
:10435000A97C8172A0F6CA31B1F8CA0BFFF793F8B5
:10436000D949A1F8CA0BD1F8D10BFFF797F8D64974
:10437000C1F8D10B0E21D44890F8652B00F66630B9
:104380008154D14890F8650B401CCF4981F8650BEA
:10439000042008700020D3E710B5FFF756F8044654
:1043A00000BFFFF752F8001BB0F5167FF9D9FEF7F2
:1043B0009DFD10BD10B504462CB9C4A001F016F93E
:1043C0004FF0FF3010BD2089FFF75DF82081CB480A
:1043D0000078C0F38000217AC1F3800188425AD06E
:1043E000207AC0F3800000282BD0207A00F0010052
:1043F00080B10021B44890F84E2B00F64F30815424
:10440000B14890F84E0B401CAF4981F84E0BBCA050
:1044100001F0ECF8207AC0F3400000283BD00121E5
:10442000A94890F84E2B00F64F308154A64890F8DA
:104430004E0B401CA44981F84E0BB9A001F0D6F8F0
:1044400029E0207A00F0010080B100219E4890F818
:104450004E2B00F64F3081549B4890F84E0B401C79
:10446000994981F84E0BA6A001F0C0F8207AC0F35C
:10447000400080B10221944890F84E2B00F64F3056
:104480008154914890F84E0B401C8F4981F84E0B97
:10449000AAA001F0ABF899480078C0F3C000217AD7
:1044A000C1F3C00188422ED0207AC1089348007819
:1044B00061F3C30091490870207AC0F3C00088B14D
:1044C0000321814890F84E2B00F64F3081547E48EE
:1044D00090F84E0B401C7C4981F84E0B9EA001F0D9
:1044E00085F810E00421784890F84E2B00F64F3004
:1044F0008154754890F84E0B401C734981F84E0B5F
:104500009DA001F073F87D480078C0F30010217A77
:10451000C1F3001188422ED0207A01097748007833
:1045200061F3041075490870207AC0F3001088B157
:104530000521654890F84E2B00F64F3081546248B3
:1045400090F84E0B401C604981F84E0B92A001F090
:104550004DF810E006215C4890F84E2B00F64F30E5
:104560008154594890F84E0B401C574981F84E0B26
:1045700091A001F03BF861480078C0F34010217A27
:10458000C1F3401188422ED0207A41095B4800785F
:1045900061F3451059490870207AC0F3401088B182
:1045A0000721494890F84E2B00F64F308154464879
:1045B00090F84E0B401C444981F84E0B87A001F047
:1045C00015F810E00821404890F84E2B00F64F30C7
:1045D00081543D4890F84E0B401C3B4981F84E0BEE
:1045E00085A001F003F845484078C0F3C001607A27
:1045F000C0F3C000814207D0607AC1083F484078CC
:1046000061F3C3003D4907E12EE1000067697A507C
:10461000726F746F636F6C47657444657669636528
:10462000496E666F204572726F72202C20496C6C47
:104630006567616C20506172616D0A003030303006
:104640003030303400000000303030303030303224
:1046500000000000303330313031303200000000D3
:10466000303330313031303000000000796F7572F6
:104670005F70726F647563745F6B65790000000032
:1046800067697A50726F746F636F6C4572726F7284
:10469000436D64204572726F72202C20496C6C65EA
:1046A00067616C20506172616D0A00004552524F83
:1046B000523A204E545020697320656D70747920F1
:1046C0000A000000860C0020BC00002067697A50B8
:1046D000726F746F636F6C4D6F64756C655374614A
:1046E000747573204572726F72202C20496C6C6552
:1046F00067616C20506172616D0A000050000020FB
:104700004F6E426F617264696E673A20536F6674D0
:104710004150206F7220576562206D6F64650A00FA
:104720004F6E426F617264696E673A204169724CE4
:10473000696E6B206D6F64650A0000004F6E426FFA
:10474000617264696E673A2053746174696F6E2098
:104750006D6F64650A0000005769466920737461D3
:104760007475733A20696E2062696E64696E6720A1
:104770006D6F64650A0000005769466920737461B3
:104780007475733A206F75742062696E64696E6720
:10479000206D6F64650A0000576946692073746173
:1047A0007475733A20636F6E6E656374656420720E
:1047B0006F757465720A00005769466920737461E9
:1047C0007475733A20646973636F6E6E65637465A4
:1047D0006420726F757465720A000000576946693B
:1047E000207374617475733A20636F6E6E656374C1
:1047F0006564206D326D0A005769466920737461E3
:104800007475733A20646973636F6E6E6563746563
:1048100064206D326D0A00004870607AC0F3C000F9
:1048200088B10B21FE4890F84E2B00F64F30815492
:10483000FB4890F84E0B401CF94981F84E0BF9A04B
:1048400000F0D4FE10E00C21F54890F84E2B00F655
:104850004F308154F24890F84E0B401CF04981F8DB
:104860004E0BF7A000F0C2FEFD484078C0F30011E7
:10487000607AC0F3001081422ED0607A0109F848B6
:10488000407861F30410F6494870607AC0F3001074
:1048900088B10921E24890F84E2B00F64F30815440
:1048A000DF4890F84E0B401CDD4981F84E0BEDA01F
:1048B00000F09CFE10E00A21D94890F84E2B00F63B
:1048C0004F308154D64890F84E0B401CD44981F8A3
:1048D0004E0BEBA000F08AFE0D21D14890F84E2B34
:1048E00000F64F308154CE4890F84E0B401CCC4916
:1048F00081F84E0B607A00F0070081F8C90B08467A
:1049000090F8C91BE5A000F071FE0220C4490870B0
:10491000002057E52DE9F0478AB004468846164640
:104920000027BA46B946254614B1B8F1000F07D1A1
:10493000DEA000F05BFE4FF0FF300AB0BDE8F0876C
:10494000D6B901A8FFF797FA2079401CC0B28DF8BC
:10495000080060798DF809000520FEF794FDADF898
:104960000600092101A8FEF774FD8DF80C000DF179
:10497000040A4FF0090925E004A8FFF77CFA28791A
:10498000401CC0B28DF8140068798DF81500B11D77
:1049900088B2FEF778FDADF81200287A401CC0B24C
:1049A0008DF81800324641460DF1190000F07EFCEA
:1049B000152104A8FEF74DFD8DF824000DF1100A15
:1049C0004FF0150949465046FEF7F6FA0746002F04
:1049D00004DA4A463946C14800F008FE3846ACE7DA
:1049E000F0B587B005460E46174600242EB9BCA088
:1049F00000F0FCFD601E07B0F0BD01A8FFF73BFA18
:104A000005208DF80800864890F87117D0F87107D6
:104A1000401C834AC2F87107C8B28DF809008DF8AE
:104A20000C501120FEF72FFDADF806003A46314636
:104A30000DF10D0000F03AFC152101A8FEF709FD6B
:104A40008DF81800152101A8FEF7B6FA0446002CCF
:104A500004DA2146AFF6700000F0C8FD152101A868
:104A6000FFF71AFA2046C6E72DE9F04704460E463E
:104A700017461D46A0464FF0000998F808900CB163
:104A800007B135B9A0A000F0B1FD4FF0FF30BDE88F
:104A9000F0871721A84800F022FCB9F1010F06D0D9
:104AA000B9F1020F11D0B9F1050F3ED120E0A24AB1
:104AB0004532A14904F10900FEF779FF0120584968
:104AC000087000270020286030E09B498731A1F161
:104AD0002100FFF754F99848873001683960416830
:104AE000796001893981807AB8720B2028601DE0D5
:104AF000A6F10A0204F10901904800F0D7FBA6F1E3
:104B00000A004749C1F86D070F21454890F8372B37
:104B100000F638308154424890F8370B401C404929
:104B200081F8370B0320087000E000BF00BF0020B1
:104B3000ADE710B5FEF7FAF9FEF77CFA40F26C70BB
:104B40007F4908607F48C8600846FEF751FB40F681
:104B5000D531334800F0C3FB10BD30B587B00546F2
:104B60000024052D5AD2DFE805F00331FBF0EF00F9
:104B700001A8FFF780F90B208DF80800284890F86D
:104B80007117D0F87107401C254AC2F87107C8B2E6
:104B90008DF809000520FEF776FCADF80600092126
:104BA00001A8FEF756FC8DF80C00092101A8FEF7BC
:104BB00003FA0446002C04DA2146AFF6D41000F0C4
:104BC00015FD092101A8FFF767F959E104A8FFF7CE
:104BD00052F909208DF81400114890F87117D0F897
:104BE0007107401C0E4AC2F87107C8B28DF8150053
:104BF0008DF818500620FEF746FCADF812000A2189
:104C000004A8FEF726FC8DF819000A2104A8FEF777
:104C1000D3F90446002C02DA214698E02CE19AE010
:104C2000BC00002057694669207374617475733A3B
:104C30002061707020636F6E6E6563740A000000FF
:104C400057694669207374617475733A206E6F20DA
:104C500061707020636F6E6E6563740A00000000FF
:104C60005000002057694669207374617475733A67
:104C700020696E2074657374206D6F64650A00008E
:104C800057694669207374617475733A206F75743F
:104C90002074657374206D6F64650A005253534924
:104CA000206973202564200A0000000067697A509B
:104CB000726F746F636F6C4973737565644461746C
:104CC0006141636B204572726F72202C20496C6CBD
:104CD0006567616C20506172616D0A00885A000836
:104CE00067697A5265706F727444617461204572AD
:104CF000726F72202C20496C6C6567616C2050616A
:104D000072616D0A0000000067697A50726F746FFB
:104D1000636F6C49737375656450726F6365737309
:104D2000204572726F72202C20496C6C6567616C33
:104D300020506172616D0A00F30B002073040020A3
:104D4000940C0020A40C002068E039E008E0AFF6E5
:104D5000683000F04BFC0A2104A8FFF79DF88FE0B3
:104D600004A8FFF788F809208DF81400FA4890F895
:104D70007117D0F87107401CF74AC2F87107C8B222
:104D80008DF815008DF818500620FEF77CFBADF865
:104D900012000A2104A8FEF75CFB8DF819000A2115
:104DA00004A8FEF709F90446002C04DA2146AFF600
:104DB000C83000F01BFC0A2104A8FFF76DF85FE083
:104DC00001A8FFF758F813208DF80800E24890F882
:104DD0007117D0F87107401CDF4AC2F87107C8B2DA
:104DE0008DF809000520FEF74EFBADF806000921FD
:104DF00001A8FEF72EFB8DF80C00092101A8FEF793
:104E0000DBF80446002C04DA2146AFF6244000F01B
:104E1000EDFB092101A8FFF73FF831E001A8FFF7FA
:104E20002AF815208DF80800CB4890F87117D0F8B3
:104E30007107401CC84AC2F87107C8B28DF8090052
:104E40000520FEF720FBADF80600092101A8FEF7BA
:104E500000FB8DF80C00092101A8FEF7ADF804460F
:104E6000002C04DA2146AFF6804000F0BFFB092198
:104E700001A8FFF711F803E0B8A000F0B7FB00BFEE
:104E800000BF204607B030BD3EB500246846FEF79F
:104E9000F2FF17208DF80400AF4890F87117D0F892
:104EA0007107401CAC4AC2F87107C8B28DF8050002
:104EB0000520FEF7E8FAADF8020009216846FEF782
:104EC000C8FA8DF8080009216846FEF775F804460F
:104ED000002C03DA2146A7A000F088FB09216846D0
:104EE000FEF7DAFF3EBD2DE9F041ADF5EF6D04466A
:104EF0000025002600200290019000273CB9A6A0C2
:104F000000F074FB681E0DF5EF6DBDE8F081FFF752
:104F10004AF802AA9049491CA948FEF792FC0546A6
:104F2000002D6ED1A7A000F061FBFEF78EFA80463F
:104F3000BDF808204146A8A000F058FB002607E075
:104F40008548401C815DA9A000F050FB701C86B212
:104F5000BDF808008642F3DB8EA000F047FB7E4FD1
:104F60007F1C38790D2834D00EDC07282DD006DCC4
:104F7000012816D0032818D0062854D130E00A287A
:104F80002FD00C284FD12DE014283BD004DC0F2863
:104F90002DD0112847D133E0162824D0182842D12B
:104FA00037E03846FFF730F845E001AB03AABDF81B
:104FB00008106948401CFFF757FD054625B903A9AD
:104FC0003846019AFFF7A6FC35E03846FEF7C0FFE9
:104FD00031E03846FEF7BCFF3846FFF7EBF92AE030
:104FE00000BF00BF00BF3846FEF79AFF23E03846F7
:104FF000FEF7AEFF7FA000F0F9FAFFF7CDF91AE057
:1050000019E019E03846FEF78BFF7FA000F0EEFABA
:1050100011E03846FEF784FF3846FFF788F982A092
:1050200000F0E4FA07E002213846FFF752F984A0C5
:1050300000F0DCFA00BF0EE015F1020F0BD1464F75
:105040007F1C01213846FFF744F983A000F0CEFA17
:105050006FF0010057E740480078012806D0022889
:1050600013D0032821D004283BD12AE000203A495C
:105070000870212201F67C31A1F14500FDF750FEB8
:1050800017217C4800F02BF92BE0002032490870F2
:10509000012201F6C931A1F17B00FDF741FE172184
:1050A0007448173000F01BF91BE000202A490870F3
:1050B0000846D0F86D2700F2B7316E48FDF730FE94
:1050C0000FE00020244908700B2201F6CA31A1F13B
:1050D0006500FDF725FE172166482E3000F0FFF829
:1050E00000BF00BF634966312046FEF7E9FC012896
:1050F00013D161A000F07AFA5E4987312046FEF7AD
:105100003EFE0B225B4987310420FFF769FC212218
:1051100021465848663000F0C9F8FEF796F95C4918
:10512000B0FBF1F201FB120098B95AA000F05EFA50
:10513000504987312046FEF722FE0B224D49873128
:105140000420FFF74DFC212221464A48663000F03A
:10515000ADF80020D7E60000BC0000204552524FB9
:10516000523A204366674D6F6465206572726F72B4
:10517000210A00004552524F525B4E54505D3A2076
:1051800075617274207772697465206572726F72CE
:10519000202564200A00000047697A776974734803
:1051A000616E646C65204572726F72202C20496CB0
:1051B0006C6567616C20506172616D0A00000000CF
:1051C000940C0020476574204F6E65205061636B1E
:1051D0006574210A0000000057694669324D435545
:1051E0005B2534643A2534645D3A200025303278FA
:1051F000200000007265706F72743A4D4355207242
:1052000065626F6F74210A0041636B2050524F44F6
:10521000554354494F4E5F4D4F444520737563636A
:10522000657373200A00000041636B204745545F9B
:105230005554542073756363657373200A0000002E
:105240004552524F523A20636D6420636F6465206B
:105250006572726F72210A004552524F523A2063B2
:105260006865636B2073756D206572726F72210AB9
:1052700000000000F30B00206368616E6765642C1A
:10528000207265706F727420646174610A0000009E
:10529000C0270900496E666F3A20363030532072BD
:1052A00065706F727420646174610A0040EA0103E2
:1052B0009B0703D009E008C9121F08C0042AFAD2CC
:1052C00003E011F8013B00F8013B521EF9D2704790
:1052D000D2B201E000F8012B491EFBD27047002238
:1052E000F6E710B513460A4604461946FFF7F0FFE5
:1052F000204610BDF0B480EA0102D40F4200B2EBA8
:10530000410F02D20246084611464A0042D0C30D60
:10531000DDB2C1F3C752AD1A202D35DAC1F3160143
:1053200041F4000204B15242C5F1200602FA06F12E
:105330002A411044B3EBD05F23D0C4B1012DA0EBC0
:10534000C35009DCF0BC4FF0004202EAC352DBB2AA
:1053500000F5000000F0E9B8400000F1807000EBBB
:10536000C350A0F1807040EAD170490009E04908BB
:1053700041EAC071A0EBC35000F50000400800EB0B
:10538000C350F0BC00F0C8B86142012202EB4101F9
:10539000001BF6E7F0BC704781F00041AAE780F0FF
:1053A0000040A7E780EA010210B502F00043400088
:1053B00022D04A001FD0010E01EB1261C0F356004B
:1053C000C2F3560240F4000042F40002A0FB0220A7
:1053D00000047F39140400D0401C50EA124001D46C
:1053E0004000491EC2B20C0604EBD010401C40081D
:1053F000802A02D003E0002010BD20F00100002927
:1054000000DA0020184310BD30B480EA010202F037
:10541000004530F0004221F0004013D090B1C30DA0
:10542000D40DC2F31601C0F31600E41A41F40001D2
:1054300040F400027D34914201D3641C00E0490035
:10544000002C02DA30BC002070474FF4000000232B
:10545000914201D3891A034340084FEA4101F7D131
:1054600051B1914202D14FF0004105E002D24FF01C
:10547000010101E06FF0010103EBC450284430BC8E
:1054800000F04AB896230022114600F04EB820F0F2
:105490000040C10DC0F3160040F400007F2901DA7E
:1054A00000207047962903DCC1F19601C84070477F
:1054B0009639884070472DE9F05F054600209246F6
:1054C0009B4688460646814640241BE028464146C6
:1054D0004746224600F079F853465A46C01A914191
:1054E00010D311461846224600F060F82D1A67EBDB
:1054F00001084F4622460120002100F057F817EB23
:1055000000094E41201EA4F10104DFDC484631466B
:105510002A464346BDE8F09F0029A8BF7047401CBB
:10552000490008BF20F00100704710B4B0FA80FCB9
:1055300000FA0CF050EA010404BF10BC704749B1F6
:10554000CCF1200421FA04F411FA0CF118BF012166
:1055500021430843A3EB0C01CB1D4FEA00614FEA46
:10556000102042BF002010BC704700EBC350104415
:105570000029A4BF10BC7047401C490008BF20F0A0
:10558000010010BC70470000064C074D06E0E068C3
:1055900040F0010394E8070098471034AC42F6D37A
:1055A000FAF7A8FDCC5A0008EC5A0008202A04DBC0
:1055B000203A00FA02F1002070479140C2F1200326
:1055C00020FA03F3194390407047202A04DB203A65
:1055D00021FA02F00021704721FA02F3D040C2F113
:1055E0002002914008431946704700000FB4054B54
:1055F00010B503A9044A029800F018F810BC5DF831
:1056000014FB0000712C00085400002002E008C8C0
:10561000121F08C1002AFAD170477047002001E02C
:1056200001C1121F002AFBD1704700002DE9FF4F76
:105630008DB00F460546002606E025280BD0DDE993
:105640000F1290476D1C761C28780028F5D111B0F8
:105650003046BDE8F08F0024A246A1460122EA4967
:1056600000E0044315F8013F203B02FA03F0084232
:10567000F7D128782A2810D06FF02F022878A0F1CF
:105680003001092914D80AEB8A0102EB410144F0E8
:10569000020400EB010A6D1CF0E701CF5FEA000A8B
:1056A00003D544F40054CAF1000A44F002046D1C0E
:1056B00028782E2817D115F8010F44F004042A2861
:1056C0000ED06FF02F022878A0F1300109290AD8F6
:1056D00009EB890102EB410100EB01096D1CF2E7C6
:1056E00057F8049B6D1C28786C280FD006DC4C28DA
:1056F00017D068280DD06A2814D104E0742810D07F
:105700007A280FD10DE044F400140AE044F4801428
:1057100001E044F440146978814202D104F5801418
:105720006D1C6D1C2A786E2A1FD00CDC632A31D0C8
:1057300004DC002A8BD0582A11D19FE0642A68D05B
:10574000692A0CD165E0732A2ED004DC6F2A73D04D
:10575000702A04D197E0752A6FD0782A6ED010464F
:10576000DDE90F129047761C4CE1C4F30250022889
:1057700006D0032809D0042801CF09D0066041E1F2
:1057800001CFF117C0E900613CE101CF068039E1AA
:10579000067037E117F8040B8DF8000000208DF833
:1057A0000100EB46012003E057F804BB4FF0FF3047
:1057B00061074FF0000102D40DE008F101018846B5
:1057C00049450FDA8045F8DB1BF808100029F4D1B1
:1057D00008E008F1010188468142FADB1BF8081055
:1057E0000029F6D1DDE90F23AAEB08008146214606
:1057F00000F032F9304400EB080604E0DDE90F1256
:105800001BF8010B9047B8F10108F7D22146484632
:10581000F3E00A21C4F302534FF0000B0891022B6E
:1058200004D001CFC117032B09D00AE0FF1D27F0D8
:105830000707F7E8020108E02EE01DE01EE000B2D5
:10584000C117042B01D140B2C117002907DA4FF06C
:10585000000CD0EB0C006CEB01012D2302E02305C2
:1058600004D52B238DF82430012303E0E30701D076
:105870002023F7E7984656E00A210EE010204FF06B
:10588000000B08900CE010214FF0000B44F00404D2
:105890004FF00809089103E008214FF0000B089130
:1058A000C4F30253022B04D001CF0021032B06D0F6
:1058B00006E0FF1D27F00707F7E8020103E080B2CA
:1058C000042B00D1C0B24FF0000823072BD5702A5B
:1058D00007D0DDF820C08CF0100C5CEA0B0C05D072
:1058E0000EE040238DF82430012308E050EA010344
:1058F00006D030238DF824308DF8252002239846D9
:10590000DDF820C08CF0080C5CEA0B0C0BD150EADF
:10591000010301D1630706D530238DF824304FF001
:105920000108A9F10109582A04D038A20B9208AA4B
:105930000A920BE03AA2F9E75B46089AFFF7BBFD33
:105940000B9B9B5C0A9A521E0A92137050EA01024A
:10595000F2D10A98ADEB000000F1200B600702D5F0
:1059600024F4803401E04FF00109D94502DDA9EBB0
:105970000B0000E0002000EB0B0141440890AAEB73
:10598000010AE00306D4DDE90F232146504600F06A
:1059900063F806444FF0000908E009A911F809006E
:1059A000DDE90F12904709F10109761CC145F4DBCE
:1059B000E0030CD5DDE90F232146504600F04CF8FA
:1059C000064404E0DDE90F1230209047761C089968
:1059D000481E08900029F5DC08E00A980A9900782A
:1059E000491C0A91DDE90F129047761CBBF10001BA
:1059F000ABF1010BF1DC21465046DDE90F2300F04D
:105A000019F806446D1C1FE60928010030313233B5
:105A100034353637383961626364656600000000EA
:105A200030313233343536373839414243444546D4
:105A3000000000002DE9F041044600251E461746EF
:105A4000880404D405E039462020B0476D1C641E4C
:105A5000F9D52846BDE8F0812DE9F041044600253E
:105A60001E469046C80301D5302700E02027880451
:105A700004D505E041463846B0476D1C641EF9D593
:105A80002846BDE8F08100004552524F523A206747
:105A9000697A50726F746F636F6C49737375656464
:105AA0004461746141636B2075617274207772691F
:105AB0007465206572726F72202564206461746160
:105AC0004C656E202564200A00000000EC5A000896
:105AD00000000020580000000C560008445B00083D
